{
  "contractName": "Lottery",
  "abi": [
    {
      "inputs": [],
      "stateMutability": "nonpayable",
      "type": "constructor"
    },
    {
      "inputs": [
        {
          "internalType": "uint256",
          "name": "",
          "type": "uint256"
        }
      ],
      "name": "HistoryList",
      "outputs": [
        {
          "internalType": "address",
          "name": "",
          "type": "address"
        }
      ],
      "stateMutability": "view",
      "type": "function",
      "constant": true
    },
    {
      "inputs": [],
      "name": "lotteryNumber",
      "outputs": [
        {
          "internalType": "uint256",
          "name": "",
          "type": "uint256"
        }
      ],
      "stateMutability": "view",
      "type": "function",
      "constant": true
    },
    {
      "inputs": [],
      "name": "entry",
      "outputs": [],
      "stateMutability": "payable",
      "type": "function",
      "payable": true
    },
    {
      "inputs": [],
      "name": "picWinners",
      "outputs": [],
      "stateMutability": "nonpayable",
      "type": "function"
    },
    {
      "inputs": [],
      "name": "getPotAmmount",
      "outputs": [
        {
          "internalType": "uint256",
          "name": "",
          "type": "uint256"
        }
      ],
      "stateMutability": "view",
      "type": "function",
      "constant": true
    },
    {
      "inputs": [],
      "name": "TotalPlayers",
      "outputs": [
        {
          "internalType": "uint256",
          "name": "",
          "type": "uint256"
        }
      ],
      "stateMutability": "view",
      "type": "function",
      "constant": true
    },
    {
      "inputs": [
        {
          "internalType": "uint256",
          "name": "lotteryId",
          "type": "uint256"
        }
      ],
      "name": "getHistory",
      "outputs": [
        {
          "internalType": "address",
          "name": "",
          "type": "address"
        }
      ],
      "stateMutability": "view",
      "type": "function",
      "constant": true
    },
    {
      "inputs": [],
      "name": "players",
      "outputs": [
        {
          "internalType": "address payable[]",
          "name": "",
          "type": "address[]"
        }
      ],
      "stateMutability": "view",
      "type": "function",
      "constant": true
    }
  ],
  "bytecode": "0x608060405234801561001057600080fd5b5033600160006101000a81548173ffffffffffffffffffffffffffffffffffffffff021916908373ffffffffffffffffffffffffffffffffffffffff160217905550610c9e806100616000396000f3fe60806040526004361061007b5760003560e01c8063aa103e441161004e578063aa103e4414610109578063c8691b2a14610134578063d1d0086614610171578063dc0b35641461019c5761007b565b80630800ab6514610080578063082fa60a146100ab57806366546fc8146100c257806367f239dd146100ff575b600080fd5b34801561008c57600080fd5b506100956101c7565b6040516100a29190610718565b60405180910390f35b3480156100b757600080fd5b506100c06101cf565b005b3480156100ce57600080fd5b506100e960048036038101906100e49190610764565b610453565b6040516100f691906107d2565b60405180910390f35b610107610486565b005b34801561011557600080fd5b5061011e610535565b60405161012b9190610718565b60405180910390f35b34801561014057600080fd5b5061015b60048036038101906101569190610764565b61053b565b60405161016891906107d2565b60405180910390f35b34801561017d57600080fd5b50610186610578565b6040516101939190610718565b60405180910390f35b3480156101a857600080fd5b506101b1610585565b6040516101be91906108bd565b60405180910390f35b600047905090565b600160009054906101000a900473ffffffffffffffffffffffffffffffffffffffff1673ffffffffffffffffffffffffffffffffffffffff163373ffffffffffffffffffffffffffffffffffffffff161461025f576040517f08c379a00000000000000000000000000000000000000000000000000000000081526004016102569061093c565b60405180910390fd5b6000600280549050116102a7576040517f08c379a000000000000000000000000000000000000000000000000000000000815260040161029e906109a8565b60405180910390fd5b60006002805490506102b7610613565b6102c191906109f7565b9050600281815481106102d7576102d6610a28565b5b9060005260206000200160009054906101000a900473ffffffffffffffffffffffffffffffffffffffff1673ffffffffffffffffffffffffffffffffffffffff166108fc479081150290604051600060405180830381858888f19350505050158015610347573d6000803e3d6000fd5b506002818154811061035c5761035b610a28565b5b9060005260206000200160009054906101000a900473ffffffffffffffffffffffffffffffffffffffff16600360008054815260200190815260200160002060006101000a81548173ffffffffffffffffffffffffffffffffffffffff021916908373ffffffffffffffffffffffffffffffffffffffff1602179055506000808154809291906103eb90610a86565b9190505550600067ffffffffffffffff81111561040b5761040a610ace565b5b6040519080825280602002602001820160405280156104395781602001602082028036833780820191505090505b506002908051906020019061044f929190610658565b5050565b60036020528060005260406000206000915054906101000a900473ffffffffffffffffffffffffffffffffffffffff1681565b66b1a2bc2ec500003410156104d0576040517f08c379a00000000000000000000000000000000000000000000000000000000081526004016104c790610b6f565b60405180910390fd5b6002339080600181540180825580915050600190039060005260206000200160009091909190916101000a81548173ffffffffffffffffffffffffffffffffffffffff021916908373ffffffffffffffffffffffffffffffffffffffff160217905550565b60005481565b60006003600083815260200190815260200160002060009054906101000a900473ffffffffffffffffffffffffffffffffffffffff169050919050565b6000600280549050905090565b6060600280548060200260200160405190810160405280929190818152602001828054801561060957602002820191906000526020600020905b8160009054906101000a900473ffffffffffffffffffffffffffffffffffffffff1673ffffffffffffffffffffffffffffffffffffffff16815260200190600101908083116105bf575b5050505050905090565b600080434244454160028054905060405160200161063696959493929190610bf8565b6040516020818303038152906040528051906020012090508060001c91505090565b8280548282559060005260206000209081019282156106d1579160200282015b828111156106d05782518260006101000a81548173ffffffffffffffffffffffffffffffffffffffff021916908373ffffffffffffffffffffffffffffffffffffffff16021790555091602001919060010190610678565b5b5090506106de91906106e2565b5090565b5b808211156106fb5760008160009055506001016106e3565b5090565b6000819050919050565b610712816106ff565b82525050565b600060208201905061072d6000830184610709565b92915050565b600080fd5b610741816106ff565b811461074c57600080fd5b50565b60008135905061075e81610738565b92915050565b60006020828403121561077a57610779610733565b5b60006107888482850161074f565b91505092915050565b600073ffffffffffffffffffffffffffffffffffffffff82169050919050565b60006107bc82610791565b9050919050565b6107cc816107b1565b82525050565b60006020820190506107e760008301846107c3565b92915050565b600081519050919050565b600082825260208201905092915050565b6000819050602082019050919050565b600061082482610791565b9050919050565b61083481610819565b82525050565b6000610846838361082b565b60208301905092915050565b6000602082019050919050565b600061086a826107ed565b61087481856107f8565b935061087f83610809565b8060005b838110156108b0578151610897888261083a565b97506108a283610852565b925050600181019050610883565b5085935050505092915050565b600060208201905081810360008301526108d7818461085f565b905092915050565b600082825260208201905092915050565b7f6f6e6c79206f776e65722063616e2073656c6563742077696e6e657200000000600082015250565b6000610926601c836108df565b9150610931826108f0565b602082019050919050565b6000602082019050818103600083015261095581610919565b9050919050565b7f546865726520617265206e6f20706c6179657273000000000000000000000000600082015250565b60006109926014836108df565b915061099d8261095c565b602082019050919050565b600060208201905081810360008301526109c181610985565b9050919050565b7f4e487b7100000000000000000000000000000000000000000000000000000000600052601260045260246000fd5b6000610a02826106ff565b9150610a0d836106ff565b925082610a1d57610a1c6109c8565b5b828206905092915050565b7f4e487b7100000000000000000000000000000000000000000000000000000000600052603260045260246000fd5b7f4e487b7100000000000000000000000000000000000000000000000000000000600052601160045260246000fd5b6000610a91826106ff565b91507fffffffffffffffffffffffffffffffffffffffffffffffffffffffffffffffff8203610ac357610ac2610a57565b5b600182019050919050565b7f4e487b7100000000000000000000000000000000000000000000000000000000600052604160045260246000fd5b7f596f75206d7573742073656e64206174206c6561737420302e3035206574686560008201527f7200000000000000000000000000000000000000000000000000000000000000602082015250565b6000610b596021836108df565b9150610b6482610afd565b604082019050919050565b60006020820190508181036000830152610b8881610b4c565b9050919050565b6000819050919050565b610baa610ba5826106ff565b610b8f565b82525050565b60008160601b9050919050565b6000610bc882610bb0565b9050919050565b6000610bda82610bbd565b9050919050565b610bf2610bed82610819565b610bcf565b82525050565b6000610c048289610b99565b602082019150610c148288610b99565b602082019150610c248287610b99565b602082019150610c348286610b99565b602082019150610c448285610be1565b601482019150610c548284610b99565b60208201915081905097965050505050505056fea2646970667358221220be52a0eb660a4dce11737f2d4e237d54c59a4e76b2195ba6a64c4cf747f2e9e564736f6c63430008100033",
  "immutableReferences": {},
  "source": "// SPDX-License-Identifier: MIT\r\npragma solidity >=0.4.22 <0.9.0;\r\n\r\ncontract Lottery {\r\n    uint256 public lotteryNumber;\r\n    address private owner;\r\n    address payable[] private playersList;\r\n    mapping(uint256 => address) public HistoryList;\r\n\r\n    constructor() {\r\n        owner = msg.sender;\r\n    }\r\n\r\n    //--------------------------- To Take Entry ---------------------------\r\n    function entry() public payable {\r\n        require(msg.value >= 0.05 ether, \"You must send at least 0.05 ether\");\r\n        playersList.push(payable(msg.sender));\r\n    }\r\n\r\n    //--------------------------- Random Value Genrator ---------------------------\r\n    function random() private view returns (uint256) {\r\n        bytes32 _random = keccak256(\r\n            abi.encodePacked(\r\n                block.number,\r\n                block.timestamp,\r\n                block.difficulty,\r\n                block.gaslimit,\r\n                block.coinbase,\r\n                playersList.length\r\n            )\r\n        );\r\n        return uint256(_random);\r\n    }\r\n\r\n    //--------------------------- Pick Winner ---------------------------\r\n    function picWinners() public {\r\n        require(msg.sender == owner, \"only owner can select winner\");\r\n        require(playersList.length > 0, \"There are no players\");\r\n\r\n        uint256 index = random() % playersList.length;\r\n        playersList[index].transfer(address(this).balance);\r\n\r\n        HistoryList[lotteryNumber] = playersList[index];\r\n        lotteryNumber++;\r\n\r\n        // reset\r\n        playersList = new address payable[](0);\r\n    }\r\n\r\n    //--------------------------- Get Pot Ammount ---------------------------\r\n    function getPotAmmount() public view returns (uint256) {\r\n        return (address(this).balance);\r\n    }\r\n\r\n    //--------------------------- Total Players ---------------------------\r\n    function TotalPlayers() public view returns (uint256) {\r\n        return playersList.length;\r\n    }\r\n\r\n    //--------------------------- Get Previous Winner ---------------------------\r\n    function getHistory(uint256 lotteryId) public view returns (address) {\r\n        return HistoryList[lotteryId];\r\n    }\r\n\r\n    //--------------------------- Get Current Participates ---------------------------\r\n    function players() public view returns (address payable[] memory) {\r\n        return playersList;\r\n    }\r\n}\r\n",
  "sourcePath": "e:\\Codes\\Blockchain\\Lottery\\contracts\\Lottery.sol",
  "compiler": {
    "name": "solc",
    "version": "0.8.16+commit.07a7930e.Emscripten.clang"
  },
  "schemaVersion": "3.4.9",
  "updatedAt": "2022-11-18T10:00:41.582Z",
  "networkType": "ethereum",
  "devdoc": {
    "kind": "dev",
    "methods": {},
    "version": 1
  },
  "userdoc": {
    "kind": "user",
    "methods": {},
    "version": 1
  }
}